{
  "_format": "hh-sol-artifact-1",
  "contractName": "PearlExchange",
  "sourceName": "contracts/PearlExchange.sol",
  "abi": [
    {
      "inputs": [
        {
          "internalType": "address",
          "name": "_pearlTokenAddress",
          "type": "address"
        },
        {
          "internalType": "uint256",
          "name": "_initialPearlPerEthRate",
          "type": "uint256"
        }
      ],
      "stateMutability": "nonpayable",
      "type": "constructor"
    },
    {
      "inputs": [
        {
          "internalType": "address",
          "name": "owner",
          "type": "address"
        }
      ],
      "name": "OwnableInvalidOwner",
      "type": "error"
    },
    {
      "inputs": [
        {
          "internalType": "address",
          "name": "account",
          "type": "address"
        }
      ],
      "name": "OwnableUnauthorizedAccount",
      "type": "error"
    },
    {
      "anonymous": false,
      "inputs": [
        {
          "indexed": true,
          "internalType": "address",
          "name": "user",
          "type": "address"
        },
        {
          "indexed": false,
          "internalType": "uint256",
          "name": "ethAmount",
          "type": "uint256"
        },
        {
          "indexed": false,
          "internalType": "uint256",
          "name": "pearlAmount",
          "type": "uint256"
        }
      ],
      "name": "EthToPearlExchanged",
      "type": "event"
    },
    {
      "anonymous": false,
      "inputs": [
        {
          "indexed": false,
          "internalType": "uint256",
          "name": "newRate",
          "type": "uint256"
        }
      ],
      "name": "ExchangeRateUpdated",
      "type": "event"
    },
    {
      "anonymous": false,
      "inputs": [
        {
          "indexed": true,
          "internalType": "address",
          "name": "previousOwner",
          "type": "address"
        },
        {
          "indexed": true,
          "internalType": "address",
          "name": "newOwner",
          "type": "address"
        }
      ],
      "name": "OwnershipTransferred",
      "type": "event"
    },
    {
      "anonymous": false,
      "inputs": [
        {
          "indexed": true,
          "internalType": "address",
          "name": "user",
          "type": "address"
        },
        {
          "indexed": false,
          "internalType": "uint256",
          "name": "pearlAmount",
          "type": "uint256"
        },
        {
          "indexed": false,
          "internalType": "uint256",
          "name": "ethAmount",
          "type": "uint256"
        }
      ],
      "name": "PearlToEthExchanged",
      "type": "event"
    },
    {
      "inputs": [],
      "name": "depositEth",
      "outputs": [],
      "stateMutability": "payable",
      "type": "function"
    },
    {
      "inputs": [],
      "name": "exchangeEthForPearl",
      "outputs": [],
      "stateMutability": "payable",
      "type": "function"
    },
    {
      "inputs": [
        {
          "internalType": "uint256",
          "name": "_pearlAmount",
          "type": "uint256"
        }
      ],
      "name": "exchangePearlForEth",
      "outputs": [],
      "stateMutability": "nonpayable",
      "type": "function"
    },
    {
      "inputs": [],
      "name": "owner",
      "outputs": [
        {
          "internalType": "address",
          "name": "",
          "type": "address"
        }
      ],
      "stateMutability": "view",
      "type": "function"
    },
    {
      "inputs": [],
      "name": "pearlPerEthRate",
      "outputs": [
        {
          "internalType": "uint256",
          "name": "",
          "type": "uint256"
        }
      ],
      "stateMutability": "view",
      "type": "function"
    },
    {
      "inputs": [],
      "name": "pearlToken",
      "outputs": [
        {
          "internalType": "contract IERC20",
          "name": "",
          "type": "address"
        }
      ],
      "stateMutability": "view",
      "type": "function"
    },
    {
      "inputs": [],
      "name": "renounceOwnership",
      "outputs": [],
      "stateMutability": "nonpayable",
      "type": "function"
    },
    {
      "inputs": [
        {
          "internalType": "uint256",
          "name": "_newRate",
          "type": "uint256"
        }
      ],
      "name": "setExchangeRate",
      "outputs": [],
      "stateMutability": "nonpayable",
      "type": "function"
    },
    {
      "inputs": [
        {
          "internalType": "address",
          "name": "newOwner",
          "type": "address"
        }
      ],
      "name": "transferOwnership",
      "outputs": [],
      "stateMutability": "nonpayable",
      "type": "function"
    },
    {
      "inputs": [
        {
          "internalType": "uint256",
          "name": "_amount",
          "type": "uint256"
        }
      ],
      "name": "withdrawEth",
      "outputs": [],
      "stateMutability": "nonpayable",
      "type": "function"
    },
    {
      "inputs": [
        {
          "internalType": "uint256",
          "name": "_amount",
          "type": "uint256"
        }
      ],
      "name": "withdrawPearlTokens",
      "outputs": [],
      "stateMutability": "nonpayable",
      "type": "function"
    }
  ],
  "bytecode": "0x608060405234801561001057600080fd5b50604051610cec380380610cec83398101604081905261002f916100d8565b338061005557604051631e4fbdf760e01b81526000600482015260240160405180910390fd5b61005e81610088565b50600180546001600160a01b0319166001600160a01b039390931692909217909155600255610112565b600080546001600160a01b038381166001600160a01b0319831681178455604051919092169283917f8be0079c531659141344cd1fd0a4f28419497f9722a3daafe3b4186f6b6457e09190a35050565b600080604083850312156100eb57600080fd5b82516001600160a01b038116811461010257600080fd5b6020939093015192949293505050565b610bcb806101216000396000f3fe60806040526004361061009c5760003560e01c80638da5cb5b116100645780638da5cb5b14610108578063aca3d0901461013f578063b114dcaf14610163578063c311d04914610183578063db068e0e146101a3578063f2fde38b146101c357600080fd5b8063016ee514146100a1578063439370b1146100c35780634456ed33146100cb578063715018a6146100eb57806371a3db7514610100575b600080fd5b3480156100ad57600080fd5b506100c16100bc366004610ac4565b6101e3565b005b6100c1610474565b3480156100d757600080fd5b506100c16100e6366004610ac4565b61047e565b3480156100f757600080fd5b506100c161061a565b6100c161062c565b34801561011457600080fd5b506000546001600160a01b03165b6040516001600160a01b0390911681526020015b60405180910390f35b34801561014b57600080fd5b5061015560025481565b604051908152602001610136565b34801561016f57600080fd5b50600154610122906001600160a01b031681565b34801561018f57600080fd5b506100c161019e366004610ac4565b610877565b3480156101af57600080fd5b506100c16101be366004610ac4565b610979565b3480156101cf57600080fd5b506100c16101de366004610add565b610a0c565b600081116102445760405162461bcd60e51b815260206004820152602360248201527f4d7573742073656e6420506561726c20746f6b656e7320746f2065786368616e60448201526233b29760e91b60648201526084015b60405180910390fd5b60025460009061025c83670de0b6b3a7640000610b0d565b6102669190610b38565b9050804710156102c95760405162461bcd60e51b815260206004820152602860248201527f4e6f7420656e6f7567682045544820696e20636f6e747261637420666f7220656044820152673c31b430b733b29760c11b606482015260840161023b565b6001546040516323b872dd60e01b8152336004820152306024820152604481018490526001600160a01b03909116906323b872dd906064016020604051808303816000875af1158015610320573d6000803e3d6000fd5b505050506040513d601f19601f820116820180604052508101906103449190610b5a565b6103a65760405162461bcd60e51b815260206004820152602d60248201527f506561726c20746f6b656e207472616e73666572206661696c65642e2043686560448201526c31b59030b63637bbb0b731b29760991b606482015260840161023b565b604051600090339083908381818185875af1925050503d80600081146103e8576040519150601f19603f3d011682016040523d82523d6000602084013e6103ed565b606091505b50509050806104345760405162461bcd60e51b81526020600482015260136024820152722330b4b632b2103a379039b2b7321022aa241760691b604482015260640161023b565b604080518481526020810184905233917f225c8502267558f11455f1a5c585b50ffa8b56191622b20aadc320423c2b8b03910160405180910390a2505050565b61047c610a47565b565b610486610a47565b6001546040516370a0823160e01b815230600482015282916001600160a01b0316906370a0823190602401602060405180830381865afa1580156104ce573d6000803e3d6000fd5b505050506040513d601f19601f820116820180604052508101906104f29190610b7c565b10156105565760405162461bcd60e51b815260206004820152602d60248201527f496e73756666696369656e7420506561726c20746f6b656e2062616c616e636560448201526c1034b71031b7b73a3930b1ba1760991b606482015260840161023b565b60015460405163a9059cbb60e01b8152336004820152602481018390526001600160a01b039091169063a9059cbb906044016020604051808303816000875af11580156105a7573d6000803e3d6000fd5b505050506040513d601f19601f820116820180604052508101906105cb9190610b5a565b6106175760405162461bcd60e51b815260206004820181905260248201527f4661696c656420746f20776974686472617720506561726c20746f6b656e732e604482015260640161023b565b50565b610622610a47565b61047c6000610a74565b6000341161067c5760405162461bcd60e51b815260206004820152601a60248201527f4d7573742073656e642045544820746f2065786368616e67652e000000000000604482015260640161023b565b6000670de0b6b3a7640000600254346106959190610b0d565b61069f9190610b38565b6001546040516370a0823160e01b815230600482015291925082916001600160a01b03909116906370a0823190602401602060405180830381865afa1580156106ec573d6000803e3d6000fd5b505050506040513d601f19601f820116820180604052508101906107109190610b7c565b10156107785760405162461bcd60e51b815260206004820152603160248201527f4e6f7420656e6f75676820506561726c20746f6b656e7320696e20636f6e747260448201527030b1ba103337b91032bc31b430b733b29760791b606482015260840161023b565b60015460405163a9059cbb60e01b8152336004820152602481018390526001600160a01b039091169063a9059cbb906044016020604051808303816000875af11580156107c9573d6000803e3d6000fd5b505050506040513d601f19601f820116820180604052508101906107ed9190610b5a565b6108395760405162461bcd60e51b815260206004820181905260248201527f4661696c656420746f207472616e7366657220506561726c20746f6b656e732e604482015260640161023b565b604080513481526020810183905233917fe558f415d81fc979fc9cf2c3f94eb06e340546eeccba2e6094805561d9be45f4910160405180910390a250565b61087f610a47565b804710156108dd5760405162461bcd60e51b815260206004820152602560248201527f496e73756666696369656e74204554482062616c616e636520696e20636f6e746044820152643930b1ba1760d91b606482015260840161023b565b604051600090339083908381818185875af1925050503d806000811461091f576040519150601f19603f3d011682016040523d82523d6000602084013e610924565b606091505b50509050806109755760405162461bcd60e51b815260206004820152601760248201527f4661696c656420746f207769746864726177204554482e000000000000000000604482015260640161023b565b5050565b610981610a47565b600081116109d15760405162461bcd60e51b815260206004820152601f60248201527f52617465206d7573742062652067726561746572207468616e207a65726f2e00604482015260640161023b565b60028190556040518181527f388f446e9526fe5c9af20a5919b342370c8a7c0cb05245afe1e545658fa3cdba9060200160405180910390a150565b610a14610a47565b6001600160a01b038116610a3e57604051631e4fbdf760e01b81526000600482015260240161023b565b61061781610a74565b6000546001600160a01b0316331461047c5760405163118cdaa760e01b815233600482015260240161023b565b600080546001600160a01b038381166001600160a01b0319831681178455604051919092169283917f8be0079c531659141344cd1fd0a4f28419497f9722a3daafe3b4186f6b6457e09190a35050565b600060208284031215610ad657600080fd5b5035919050565b600060208284031215610aef57600080fd5b81356001600160a01b0381168114610b0657600080fd5b9392505050565b8082028115828204841417610b3257634e487b7160e01b600052601160045260246000fd5b92915050565b600082610b5557634e487b7160e01b600052601260045260246000fd5b500490565b600060208284031215610b6c57600080fd5b81518015158114610b0657600080fd5b600060208284031215610b8e57600080fd5b505191905056fea26469706673582212201a10a97f249b337149b70f919ea82343e2640cd43e4fec82fc5782f3f78a9c3b64736f6c63430008140033",
  "linkReferences": {},
  "deployedLinkReferences": {}
}