{
  "_format": "hh-sol-artifact-1",
  "contractName": "UrashimaTaroMemeContest",
  "sourceName": "contracts/MemeContest.sol",
  "abi": [
    {
      "inputs": [
        {
          "internalType": "address",
          "name": "_pearlTokenAddress",
          "type": "address"
        },
        {
          "internalType": "uint256",
          "name": "_submissionFee",
          "type": "uint256"
        },
        {
          "internalType": "uint256",
          "name": "_voterEntryFee",
          "type": "uint256"
        },
        {
          "internalType": "uint256",
          "name": "_creatorReward",
          "type": "uint256"
        },
        {
          "internalType": "uint256",
          "name": "_voterReward",
          "type": "uint256"
        }
      ],
      "stateMutability": "nonpayable",
      "type": "constructor"
    },
    {
      "inputs": [
        {
          "internalType": "address",
          "name": "owner",
          "type": "address"
        }
      ],
      "name": "OwnableInvalidOwner",
      "type": "error"
    },
    {
      "inputs": [
        {
          "internalType": "address",
          "name": "account",
          "type": "address"
        }
      ],
      "name": "OwnableUnauthorizedAccount",
      "type": "error"
    },
    {
      "anonymous": false,
      "inputs": [
        {
          "indexed": true,
          "internalType": "uint256",
          "name": "winnerMemeId",
          "type": "uint256"
        },
        {
          "indexed": true,
          "internalType": "address",
          "name": "winnerCreator",
          "type": "address"
        }
      ],
      "name": "ContestEnded",
      "type": "event"
    },
    {
      "anonymous": false,
      "inputs": [
        {
          "indexed": true,
          "internalType": "uint256",
          "name": "memeId",
          "type": "uint256"
        },
        {
          "indexed": true,
          "internalType": "address",
          "name": "creator",
          "type": "address"
        },
        {
          "indexed": false,
          "internalType": "string",
          "name": "ipfsHash",
          "type": "string"
        },
        {
          "indexed": false,
          "internalType": "string",
          "name": "storyProtocolIPId",
          "type": "string"
        }
      ],
      "name": "MemeSubmitted",
      "type": "event"
    },
    {
      "anonymous": false,
      "inputs": [
        {
          "indexed": true,
          "internalType": "uint256",
          "name": "memeId",
          "type": "uint256"
        },
        {
          "indexed": true,
          "internalType": "address",
          "name": "voter",
          "type": "address"
        }
      ],
      "name": "MemeVoted",
      "type": "event"
    },
    {
      "anonymous": false,
      "inputs": [
        {
          "indexed": true,
          "internalType": "address",
          "name": "previousOwner",
          "type": "address"
        },
        {
          "indexed": true,
          "internalType": "address",
          "name": "newOwner",
          "type": "address"
        }
      ],
      "name": "OwnershipTransferred",
      "type": "event"
    },
    {
      "anonymous": false,
      "inputs": [
        {
          "indexed": true,
          "internalType": "address",
          "name": "recipient",
          "type": "address"
        },
        {
          "indexed": false,
          "internalType": "uint256",
          "name": "amount",
          "type": "uint256"
        }
      ],
      "name": "RewardsDistributed",
      "type": "event"
    },
    {
      "inputs": [],
      "name": "contestEndTime",
      "outputs": [
        {
          "internalType": "uint256",
          "name": "",
          "type": "uint256"
        }
      ],
      "stateMutability": "view",
      "type": "function"
    },
    {
      "inputs": [],
      "name": "creatorRewardAmount",
      "outputs": [
        {
          "internalType": "uint256",
          "name": "",
          "type": "uint256"
        }
      ],
      "stateMutability": "view",
      "type": "function"
    },
    {
      "inputs": [],
      "name": "distributeWinnerRewards",
      "outputs": [],
      "stateMutability": "nonpayable",
      "type": "function"
    },
    {
      "inputs": [],
      "name": "getContestResults",
      "outputs": [
        {
          "internalType": "uint256",
          "name": "winningMemeId",
          "type": "uint256"
        },
        {
          "internalType": "address",
          "name": "winningCreator",
          "type": "address"
        },
        {
          "internalType": "uint256",
          "name": "maxVotes",
          "type": "uint256"
        }
      ],
      "stateMutability": "view",
      "type": "function"
    },
    {
      "inputs": [
        {
          "internalType": "address",
          "name": "",
          "type": "address"
        },
        {
          "internalType": "uint256",
          "name": "",
          "type": "uint256"
        }
      ],
      "name": "hasVoted",
      "outputs": [
        {
          "internalType": "bool",
          "name": "",
          "type": "bool"
        }
      ],
      "stateMutability": "view",
      "type": "function"
    },
    {
      "inputs": [
        {
          "internalType": "uint256",
          "name": "",
          "type": "uint256"
        }
      ],
      "name": "memes",
      "outputs": [
        {
          "internalType": "uint256",
          "name": "id",
          "type": "uint256"
        },
        {
          "internalType": "address",
          "name": "creator",
          "type": "address"
        },
        {
          "internalType": "string",
          "name": "ipfsHash",
          "type": "string"
        },
        {
          "internalType": "string",
          "name": "storyProtocolIPId",
          "type": "string"
        },
        {
          "internalType": "uint256",
          "name": "votes",
          "type": "uint256"
        },
        {
          "internalType": "uint256",
          "name": "submissionTime",
          "type": "uint256"
        },
        {
          "internalType": "bool",
          "name": "exists",
          "type": "bool"
        }
      ],
      "stateMutability": "view",
      "type": "function"
    },
    {
      "inputs": [],
      "name": "owner",
      "outputs": [
        {
          "internalType": "address",
          "name": "",
          "type": "address"
        }
      ],
      "stateMutability": "view",
      "type": "function"
    },
    {
      "inputs": [],
      "name": "pearlToken",
      "outputs": [
        {
          "internalType": "contract IERC20",
          "name": "",
          "type": "address"
        }
      ],
      "stateMutability": "view",
      "type": "function"
    },
    {
      "inputs": [],
      "name": "renounceOwnership",
      "outputs": [],
      "stateMutability": "nonpayable",
      "type": "function"
    },
    {
      "inputs": [
        {
          "internalType": "uint256",
          "name": "_endTime",
          "type": "uint256"
        }
      ],
      "name": "setContestEndTime",
      "outputs": [],
      "stateMutability": "nonpayable",
      "type": "function"
    },
    {
      "inputs": [],
      "name": "submissionFee",
      "outputs": [
        {
          "internalType": "uint256",
          "name": "",
          "type": "uint256"
        }
      ],
      "stateMutability": "view",
      "type": "function"
    },
    {
      "inputs": [
        {
          "internalType": "string",
          "name": "_ipfsHash",
          "type": "string"
        },
        {
          "internalType": "string",
          "name": "_storyProtocolIPId",
          "type": "string"
        }
      ],
      "name": "submitMeme",
      "outputs": [],
      "stateMutability": "nonpayable",
      "type": "function"
    },
    {
      "inputs": [
        {
          "internalType": "address",
          "name": "newOwner",
          "type": "address"
        }
      ],
      "name": "transferOwnership",
      "outputs": [],
      "stateMutability": "nonpayable",
      "type": "function"
    },
    {
      "inputs": [
        {
          "internalType": "uint256",
          "name": "_submissionFee",
          "type": "uint256"
        },
        {
          "internalType": "uint256",
          "name": "_voterEntryFee",
          "type": "uint256"
        },
        {
          "internalType": "uint256",
          "name": "_creatorReward",
          "type": "uint256"
        },
        {
          "internalType": "uint256",
          "name": "_voterReward",
          "type": "uint256"
        }
      ],
      "name": "updateContestParameters",
      "outputs": [],
      "stateMutability": "nonpayable",
      "type": "function"
    },
    {
      "inputs": [
        {
          "internalType": "uint256",
          "name": "_memeId",
          "type": "uint256"
        }
      ],
      "name": "voteForMeme",
      "outputs": [],
      "stateMutability": "nonpayable",
      "type": "function"
    },
    {
      "inputs": [],
      "name": "voterEntryFee",
      "outputs": [
        {
          "internalType": "uint256",
          "name": "",
          "type": "uint256"
        }
      ],
      "stateMutability": "view",
      "type": "function"
    },
    {
      "inputs": [],
      "name": "voterRewardAmount",
      "outputs": [
        {
          "internalType": "uint256",
          "name": "",
          "type": "uint256"
        }
      ],
      "stateMutability": "view",
      "type": "function"
    },
    {
      "inputs": [
        {
          "internalType": "uint256",
          "name": "amount",
          "type": "uint256"
        }
      ],
      "name": "withdrawPearlTokens",
      "outputs": [],
      "stateMutability": "nonpayable",
      "type": "function"
    }
  ],
  "bytecode": "0x608060405234801561001057600080fd5b5060405161153938038061153983398101604081905261002f916100e4565b338061005557604051631e4fbdf760e01b81526000600482015260240160405180910390fd5b61005e81610094565b50600180546001600160a01b0319166001600160a01b039690961695909517909455600692909255600755600855600955610139565b600080546001600160a01b038381166001600160a01b0319831681178455604051919092169283917f8be0079c531659141344cd1fd0a4f28419497f9722a3daafe3b4186f6b6457e09190a35050565b600080600080600060a086880312156100fc57600080fd5b85516001600160a01b038116811461011357600080fd5b602087015160408801516060890151608090990151929a91995097965090945092505050565b6113f1806101486000396000f3fe608060405234801561001057600080fd5b50600436106101165760003560e01c80637438d4fb116100a2578063a888f74c11610071578063a888f74c14610265578063b114dcaf1461026e578063c37a535c14610281578063e88889421461028a578063f2fde38b1461029357600080fd5b80637438d4fb14610211578063843d6454146102245780638da5cb5b1461023757806396fe54181461025c57600080fd5b8063388f6064116100e9578063388f60641461018a57806342545825146101b05780634456ed33146101ee57806368c61d2f14610201578063715018a61461020957600080fd5b8063024f48391461011b578063096dc809146101305780630f07ba3a1461014c57806319aa21d014610177575b600080fd5b61012e610129366004610f9d565b6102a6565b005b61013960075481565b6040519081526020015b60405180910390f35b6101546102c2565b604080519384526001600160a01b03909216602084015290820152606001610143565b61012e610185366004610fcf565b6103af565b61019d610198366004610fcf565b610779565b604051610143979695949392919061102e565b6101de6101be3660046110a8565b600460209081526000928352604080842090915290825290205460ff1681565b6040519015158152602001610143565b61012e6101fc366004610fcf565b6108d3565b61012e61099f565b61012e610b37565b61012e61021f366004610fcf565b610b4b565b61012e610232366004611175565b610bb7565b6000546001600160a01b03165b6040516001600160a01b039091168152602001610143565b61013960055481565b61013960085481565b600154610244906001600160a01b031681565b61013960095481565b61013960065481565b61012e6102a13660046111d9565b610ee5565b6102ae610f20565b600693909355600791909155600855600955565b600080600060055442101561031e5760405162461bcd60e51b815260206004820152601a60248201527f436f6e746573743a20436f6e74657374206e6f7420656e64656400000000000060448201526064015b60405180910390fd5b506000915081905080805b6002548110156103a95760008181526003602052604090206006015460ff168015610364575060008181526003602052604090206004015482105b15610397576000818152600360205260409020600481015481546001909201549195506001600160a01b03909116935091505b806103a1816111fb565b915050610329565b50909192565b60055442106104005760405162461bcd60e51b815260206004820152601a60248201527f436f6e746573743a20436f6e746573742068617320656e6465640000000000006044820152606401610315565b60008181526003602052604090206006015460ff166104615760405162461bcd60e51b815260206004820152601c60248201527f436f6e746573743a204d656d6520646f6573206e6f74206578697374000000006044820152606401610315565b33600090815260046020908152604080832084845290915290205460ff16156104c55760405162461bcd60e51b815260206004820152601660248201527510dbdb9d195cdd0e88105b1c9958591e481d9bdd195960521b6044820152606401610315565b600081815260036020526040902060010154336001600160a01b039091160361053a5760405162461bcd60e51b815260206004820152602160248201527f436f6e746573743a2043616e6e6f7420766f746520666f72206f776e206d656d6044820152606560f81b6064820152608401610315565b6001546007546040516323b872dd60e01b815233600482015230602482015260448101919091526001600160a01b03909116906323b872dd906064016020604051808303816000875af1158015610595573d6000803e3d6000fd5b505050506040513d601f19601f820116820180604052508101906105b99190611222565b6106355760405162461bcd60e51b815260206004820152604160248201527f506561726c20746f6b656e207472616e73666572206661696c65642e2043686560448201527f636b20616c6c6f77616e636520666f7220766f74657220656e747279206665656064820152601760f91b608482015260a401610315565b6000818152600360205260408120600401805491610652836111fb565b90915550503360009081526004602090815260408083208484529091529020805460ff19166001179055600954156107495760015460095460405163a9059cbb60e01b815233600482015260248101919091526001600160a01b039091169063a9059cbb906044016020604051808303816000875af11580156106d9573d6000803e3d6000fd5b505050506040513d601f19601f820116820180604052508101906106fd9190611222565b6107495760405162461bcd60e51b815260206004820152601760248201527f4661696c656420746f2072657761726420766f7465722e0000000000000000006044820152606401610315565b604051339082907fb04229b085477d32a307704ee25d5fa10f1459f7b7250e99dafb0ee533dd223c90600090a350565b60036020526000908152604090208054600182015460028301805492936001600160a01b03909216926107ab90611244565b80601f01602080910402602001604051908101604052809291908181526020018280546107d790611244565b80156108245780601f106107f957610100808354040283529160200191610824565b820191906000526020600020905b81548152906001019060200180831161080757829003601f168201915b50505050509080600301805461083990611244565b80601f016020809104026020016040519081016040528092919081815260200182805461086590611244565b80156108b25780601f10610887576101008083540402835291602001916108b2565b820191906000526020600020905b81548152906001019060200180831161089557829003601f168201915b50505050600483015460058401546006909401549293909290915060ff1687565b6108db610f20565b60015460405163a9059cbb60e01b8152336004820152602481018390526001600160a01b039091169063a9059cbb906044016020604051808303816000875af115801561092c573d6000803e3d6000fd5b505050506040513d601f19601f820116820180604052508101906109509190611222565b61099c5760405162461bcd60e51b815260206004820152601e60248201527f506561726c20746f6b656e207769746864726177616c206661696c65642e00006044820152606401610315565b50565b6109a7610f20565b6005544210156109f95760405162461bcd60e51b815260206004820152601a60248201527f436f6e746573743a20436f6e74657374206e6f7420656e6465640000000000006044820152606401610315565b600080610a046102c2565b5090925090506001600160a01b03811615610b335760015460085460405163a9059cbb60e01b81526001600160a01b038481166004830152602482019290925291169063a9059cbb906044016020604051808303816000875af1158015610a6f573d6000803e3d6000fd5b505050506040513d601f19601f82011682018060405250810190610a939190611222565b610aed5760405162461bcd60e51b815260206004820152602560248201527f4661696c656420746f20646973747269627574652063726561746f722072657760448201526430b932399760d91b6064820152608401610315565b806001600160a01b03167fdf29796aad820e4bb192f3a8d631b76519bcd2cbe77cc85af20e9df53cece086600854604051610b2a91815260200190565b60405180910390a25b5050565b610b3f610f20565b610b496000610f4d565b565b610b53610f20565b428111610bb25760405162461bcd60e51b815260206004820152602760248201527f436f6e746573743a20456e642074696d65206d75737420626520696e207468656044820152662066757475726560c81b6064820152608401610315565b600555565b6005544210610c085760405162461bcd60e51b815260206004820152601a60248201527f436f6e746573743a20436f6e746573742068617320656e6465640000000000006044820152606401610315565b6000825111610c645760405162461bcd60e51b815260206004820152602260248201527f436f6e746573743a204950465320686173682063616e6e6f7420626520656d70604482015261747960f01b6064820152608401610315565b6000815111610ccb5760405162461bcd60e51b815260206004820152602d60248201527f436f6e746573743a2053746f72792050726f746f636f6c20495020494420636160448201526c6e6e6f7420626520656d70747960981b6064820152608401610315565b6001546006546040516323b872dd60e01b815233600482015230602482015260448101919091526001600160a01b03909116906323b872dd906064016020604051808303816000875af1158015610d26573d6000803e3d6000fd5b505050506040513d601f19601f82011682018060405250810190610d4a9190611222565b610dbe576040805162461bcd60e51b81526020600482015260248101919091527f506561726c20746f6b656e207472616e73666572206661696c65642e2043686560448201527f636b20616c6c6f77616e636520666f72207375626d697373696f6e206665652e6064820152608401610315565b600280546040805160e081018252828152336020808301918252828401888152606084018890526000608085018190524260a0860152600160c0860181905287825260039093529490942083518155915190820180546001600160a01b0319166001600160a01b0390921691909117905591519293909290820190610e4390826112cd565b5060608201516003820190610e5890826112cd565b506080820151600482015560a0820151600582015560c0909101516006909101805460ff191691151591909117905560028054906000610e97836111fb565b9190505550336001600160a01b0316817f02d5d65b5a560df25aa4dc0520ff6c390371d68dbe788ca424931a08386a298a8585604051610ed892919061138d565b60405180910390a3505050565b610eed610f20565b6001600160a01b038116610f1757604051631e4fbdf760e01b815260006004820152602401610315565b61099c81610f4d565b6000546001600160a01b03163314610b495760405163118cdaa760e01b8152336004820152602401610315565b600080546001600160a01b038381166001600160a01b0319831681178455604051919092169283917f8be0079c531659141344cd1fd0a4f28419497f9722a3daafe3b4186f6b6457e09190a35050565b60008060008060808587031215610fb357600080fd5b5050823594602084013594506040840135936060013592509050565b600060208284031215610fe157600080fd5b5035919050565b6000815180845260005b8181101561100e57602081850181015186830182015201610ff2565b506000602082860101526020601f19601f83011685010191505092915050565b8781526001600160a01b038716602082015260e06040820181905260009061105890830188610fe8565b828103606084015261106a8188610fe8565b6080840196909652505060a0810192909252151560c090910152949350505050565b80356001600160a01b03811681146110a357600080fd5b919050565b600080604083850312156110bb57600080fd5b6110c48361108c565b946020939093013593505050565b634e487b7160e01b600052604160045260246000fd5b600082601f8301126110f957600080fd5b813567ffffffffffffffff80821115611114576111146110d2565b604051601f8301601f19908116603f0116810190828211818310171561113c5761113c6110d2565b8160405283815286602085880101111561115557600080fd5b836020870160208301376000602085830101528094505050505092915050565b6000806040838503121561118857600080fd5b823567ffffffffffffffff808211156111a057600080fd5b6111ac868387016110e8565b935060208501359150808211156111c257600080fd5b506111cf858286016110e8565b9150509250929050565b6000602082840312156111eb57600080fd5b6111f48261108c565b9392505050565b60006001820161121b57634e487b7160e01b600052601160045260246000fd5b5060010190565b60006020828403121561123457600080fd5b815180151581146111f457600080fd5b600181811c9082168061125857607f821691505b60208210810361127857634e487b7160e01b600052602260045260246000fd5b50919050565b601f8211156112c857600081815260208120601f850160051c810160208610156112a55750805b601f850160051c820191505b818110156112c4578281556001016112b1565b5050505b505050565b815167ffffffffffffffff8111156112e7576112e76110d2565b6112fb816112f58454611244565b8461127e565b602080601f83116001811461133057600084156113185750858301515b600019600386901b1c1916600185901b1785556112c4565b600085815260208120601f198616915b8281101561135f57888601518255948401946001909101908401611340565b508582101561137d5787850151600019600388901b60f8161c191681555b5050505050600190811b01905550565b6040815260006113a06040830185610fe8565b82810360208401526113b28185610fe8565b9594505050505056fea26469706673582212203fbf08d68d66f386613c51c13c736a34c3dcd9ca8a27592f1f2532df395a05f364736f6c63430008140033",
  "linkReferences": {},
  "deployedLinkReferences": {}
}