{
  "_format": "hh-sol-artifact-1",
  "contractName": "UrashmaTaroMysteryBox",
  "sourceName": "contracts/MysteryBox.sol",
  "abi": [
    {
      "inputs": [
        {
          "internalType": "address",
          "name": "_pearlTokenAddress",
          "type": "address"
        }
      ],
      "stateMutability": "nonpayable",
      "type": "constructor"
    },
    {
      "inputs": [
        {
          "internalType": "address",
          "name": "sender",
          "type": "address"
        },
        {
          "internalType": "uint256",
          "name": "tokenId",
          "type": "uint256"
        },
        {
          "internalType": "address",
          "name": "owner",
          "type": "address"
        }
      ],
      "name": "ERC721IncorrectOwner",
      "type": "error"
    },
    {
      "inputs": [
        {
          "internalType": "address",
          "name": "operator",
          "type": "address"
        },
        {
          "internalType": "uint256",
          "name": "tokenId",
          "type": "uint256"
        }
      ],
      "name": "ERC721InsufficientApproval",
      "type": "error"
    },
    {
      "inputs": [
        {
          "internalType": "address",
          "name": "approver",
          "type": "address"
        }
      ],
      "name": "ERC721InvalidApprover",
      "type": "error"
    },
    {
      "inputs": [
        {
          "internalType": "address",
          "name": "operator",
          "type": "address"
        }
      ],
      "name": "ERC721InvalidOperator",
      "type": "error"
    },
    {
      "inputs": [
        {
          "internalType": "address",
          "name": "owner",
          "type": "address"
        }
      ],
      "name": "ERC721InvalidOwner",
      "type": "error"
    },
    {
      "inputs": [
        {
          "internalType": "address",
          "name": "receiver",
          "type": "address"
        }
      ],
      "name": "ERC721InvalidReceiver",
      "type": "error"
    },
    {
      "inputs": [
        {
          "internalType": "address",
          "name": "sender",
          "type": "address"
        }
      ],
      "name": "ERC721InvalidSender",
      "type": "error"
    },
    {
      "inputs": [
        {
          "internalType": "uint256",
          "name": "tokenId",
          "type": "uint256"
        }
      ],
      "name": "ERC721NonexistentToken",
      "type": "error"
    },
    {
      "inputs": [
        {
          "internalType": "address",
          "name": "owner",
          "type": "address"
        }
      ],
      "name": "OwnableInvalidOwner",
      "type": "error"
    },
    {
      "inputs": [
        {
          "internalType": "address",
          "name": "account",
          "type": "address"
        }
      ],
      "name": "OwnableUnauthorizedAccount",
      "type": "error"
    },
    {
      "anonymous": false,
      "inputs": [
        {
          "indexed": true,
          "internalType": "address",
          "name": "owner",
          "type": "address"
        },
        {
          "indexed": true,
          "internalType": "address",
          "name": "approved",
          "type": "address"
        },
        {
          "indexed": true,
          "internalType": "uint256",
          "name": "tokenId",
          "type": "uint256"
        }
      ],
      "name": "Approval",
      "type": "event"
    },
    {
      "anonymous": false,
      "inputs": [
        {
          "indexed": true,
          "internalType": "address",
          "name": "owner",
          "type": "address"
        },
        {
          "indexed": true,
          "internalType": "address",
          "name": "operator",
          "type": "address"
        },
        {
          "indexed": false,
          "internalType": "bool",
          "name": "approved",
          "type": "bool"
        }
      ],
      "name": "ApprovalForAll",
      "type": "event"
    },
    {
      "anonymous": false,
      "inputs": [
        {
          "indexed": true,
          "internalType": "uint256",
          "name": "tokenId",
          "type": "uint256"
        },
        {
          "indexed": false,
          "internalType": "address",
          "name": "coinAddress",
          "type": "address"
        }
      ],
      "name": "MysteryBoxCoined",
      "type": "event"
    },
    {
      "anonymous": false,
      "inputs": [
        {
          "indexed": true,
          "internalType": "uint256",
          "name": "tokenId",
          "type": "uint256"
        },
        {
          "indexed": true,
          "internalType": "address",
          "name": "creator",
          "type": "address"
        },
        {
          "indexed": false,
          "internalType": "string",
          "name": "contentType",
          "type": "string"
        },
        {
          "indexed": false,
          "internalType": "uint256",
          "name": "mintPrice",
          "type": "uint256"
        }
      ],
      "name": "MysteryBoxCreated",
      "type": "event"
    },
    {
      "anonymous": false,
      "inputs": [
        {
          "indexed": true,
          "internalType": "uint256",
          "name": "tokenId",
          "type": "uint256"
        },
        {
          "indexed": false,
          "internalType": "string",
          "name": "ipfsHash",
          "type": "string"
        }
      ],
      "name": "MysteryBoxRevealed",
      "type": "event"
    },
    {
      "anonymous": false,
      "inputs": [
        {
          "indexed": true,
          "internalType": "address",
          "name": "previousOwner",
          "type": "address"
        },
        {
          "indexed": true,
          "internalType": "address",
          "name": "newOwner",
          "type": "address"
        }
      ],
      "name": "OwnershipTransferred",
      "type": "event"
    },
    {
      "anonymous": false,
      "inputs": [
        {
          "indexed": true,
          "internalType": "address",
          "name": "from",
          "type": "address"
        },
        {
          "indexed": true,
          "internalType": "address",
          "name": "to",
          "type": "address"
        },
        {
          "indexed": true,
          "internalType": "uint256",
          "name": "tokenId",
          "type": "uint256"
        }
      ],
      "name": "Transfer",
      "type": "event"
    },
    {
      "inputs": [],
      "name": "CREATION_FEE",
      "outputs": [
        {
          "internalType": "uint256",
          "name": "",
          "type": "uint256"
        }
      ],
      "stateMutability": "view",
      "type": "function"
    },
    {
      "inputs": [
        {
          "internalType": "address",
          "name": "to",
          "type": "address"
        },
        {
          "internalType": "uint256",
          "name": "tokenId",
          "type": "uint256"
        }
      ],
      "name": "approve",
      "outputs": [],
      "stateMutability": "nonpayable",
      "type": "function"
    },
    {
      "inputs": [
        {
          "internalType": "address",
          "name": "owner",
          "type": "address"
        }
      ],
      "name": "balanceOf",
      "outputs": [
        {
          "internalType": "uint256",
          "name": "",
          "type": "uint256"
        }
      ],
      "stateMutability": "view",
      "type": "function"
    },
    {
      "inputs": [
        {
          "internalType": "uint256",
          "name": "_tokenId",
          "type": "uint256"
        }
      ],
      "name": "convertToCoinV4",
      "outputs": [],
      "stateMutability": "nonpayable",
      "type": "function"
    },
    {
      "inputs": [
        {
          "internalType": "string",
          "name": "_contentType",
          "type": "string"
        },
        {
          "internalType": "string",
          "name": "_ipfsHash",
          "type": "string"
        },
        {
          "internalType": "string",
          "name": "_storyProtocolIPId",
          "type": "string"
        },
        {
          "internalType": "uint256",
          "name": "_mintPrice",
          "type": "uint256"
        }
      ],
      "name": "createMysteryBox",
      "outputs": [
        {
          "internalType": "uint256",
          "name": "",
          "type": "uint256"
        }
      ],
      "stateMutability": "nonpayable",
      "type": "function"
    },
    {
      "inputs": [
        {
          "internalType": "address",
          "name": "",
          "type": "address"
        },
        {
          "internalType": "uint256",
          "name": "",
          "type": "uint256"
        }
      ],
      "name": "creatorBoxes",
      "outputs": [
        {
          "internalType": "uint256",
          "name": "",
          "type": "uint256"
        }
      ],
      "stateMutability": "view",
      "type": "function"
    },
    {
      "inputs": [
        {
          "internalType": "uint256",
          "name": "tokenId",
          "type": "uint256"
        }
      ],
      "name": "getApproved",
      "outputs": [
        {
          "internalType": "address",
          "name": "",
          "type": "address"
        }
      ],
      "stateMutability": "view",
      "type": "function"
    },
    {
      "inputs": [
        {
          "internalType": "address",
          "name": "_creator",
          "type": "address"
        }
      ],
      "name": "getCreatorBoxes",
      "outputs": [
        {
          "internalType": "uint256[]",
          "name": "",
          "type": "uint256[]"
        }
      ],
      "stateMutability": "view",
      "type": "function"
    },
    {
      "inputs": [
        {
          "internalType": "uint256",
          "name": "_tokenId",
          "type": "uint256"
        }
      ],
      "name": "getMysteryBox",
      "outputs": [
        {
          "components": [
            {
              "internalType": "uint256",
              "name": "id",
              "type": "uint256"
            },
            {
              "internalType": "address",
              "name": "creator",
              "type": "address"
            },
            {
              "internalType": "string",
              "name": "contentType",
              "type": "string"
            },
            {
              "internalType": "string",
              "name": "ipfsHash",
              "type": "string"
            },
            {
              "internalType": "string",
              "name": "storyProtocolIPId",
              "type": "string"
            },
            {
              "internalType": "uint256",
              "name": "mintPrice",
              "type": "uint256"
            },
            {
              "internalType": "bool",
              "name": "isRevealed",
              "type": "bool"
            },
            {
              "internalType": "bool",
              "name": "canBeCoined",
              "type": "bool"
            },
            {
              "internalType": "uint256",
              "name": "coinedTokenAddress",
              "type": "uint256"
            }
          ],
          "internalType": "struct UrashmaTaroMysteryBox.MysteryBox",
          "name": "",
          "type": "tuple"
        }
      ],
      "stateMutability": "view",
      "type": "function"
    },
    {
      "inputs": [
        {
          "internalType": "address",
          "name": "owner",
          "type": "address"
        },
        {
          "internalType": "address",
          "name": "operator",
          "type": "address"
        }
      ],
      "name": "isApprovedForAll",
      "outputs": [
        {
          "internalType": "bool",
          "name": "",
          "type": "bool"
        }
      ],
      "stateMutability": "view",
      "type": "function"
    },
    {
      "inputs": [
        {
          "internalType": "uint256",
          "name": "",
          "type": "uint256"
        }
      ],
      "name": "mysteryBoxes",
      "outputs": [
        {
          "internalType": "uint256",
          "name": "id",
          "type": "uint256"
        },
        {
          "internalType": "address",
          "name": "creator",
          "type": "address"
        },
        {
          "internalType": "string",
          "name": "contentType",
          "type": "string"
        },
        {
          "internalType": "string",
          "name": "ipfsHash",
          "type": "string"
        },
        {
          "internalType": "string",
          "name": "storyProtocolIPId",
          "type": "string"
        },
        {
          "internalType": "uint256",
          "name": "mintPrice",
          "type": "uint256"
        },
        {
          "internalType": "bool",
          "name": "isRevealed",
          "type": "bool"
        },
        {
          "internalType": "bool",
          "name": "canBeCoined",
          "type": "bool"
        },
        {
          "internalType": "uint256",
          "name": "coinedTokenAddress",
          "type": "uint256"
        }
      ],
      "stateMutability": "view",
      "type": "function"
    },
    {
      "inputs": [],
      "name": "name",
      "outputs": [
        {
          "internalType": "string",
          "name": "",
          "type": "string"
        }
      ],
      "stateMutability": "view",
      "type": "function"
    },
    {
      "inputs": [],
      "name": "owner",
      "outputs": [
        {
          "internalType": "address",
          "name": "",
          "type": "address"
        }
      ],
      "stateMutability": "view",
      "type": "function"
    },
    {
      "inputs": [
        {
          "internalType": "uint256",
          "name": "tokenId",
          "type": "uint256"
        }
      ],
      "name": "ownerOf",
      "outputs": [
        {
          "internalType": "address",
          "name": "",
          "type": "address"
        }
      ],
      "stateMutability": "view",
      "type": "function"
    },
    {
      "inputs": [],
      "name": "pearlToken",
      "outputs": [
        {
          "internalType": "contract IERC20",
          "name": "",
          "type": "address"
        }
      ],
      "stateMutability": "view",
      "type": "function"
    },
    {
      "inputs": [
        {
          "internalType": "uint256",
          "name": "_tokenId",
          "type": "uint256"
        }
      ],
      "name": "purchaseMysteryBox",
      "outputs": [],
      "stateMutability": "nonpayable",
      "type": "function"
    },
    {
      "inputs": [],
      "name": "renounceOwnership",
      "outputs": [],
      "stateMutability": "nonpayable",
      "type": "function"
    },
    {
      "inputs": [
        {
          "internalType": "address",
          "name": "from",
          "type": "address"
        },
        {
          "internalType": "address",
          "name": "to",
          "type": "address"
        },
        {
          "internalType": "uint256",
          "name": "tokenId",
          "type": "uint256"
        }
      ],
      "name": "safeTransferFrom",
      "outputs": [],
      "stateMutability": "nonpayable",
      "type": "function"
    },
    {
      "inputs": [
        {
          "internalType": "address",
          "name": "from",
          "type": "address"
        },
        {
          "internalType": "address",
          "name": "to",
          "type": "address"
        },
        {
          "internalType": "uint256",
          "name": "tokenId",
          "type": "uint256"
        },
        {
          "internalType": "bytes",
          "name": "data",
          "type": "bytes"
        }
      ],
      "name": "safeTransferFrom",
      "outputs": [],
      "stateMutability": "nonpayable",
      "type": "function"
    },
    {
      "inputs": [
        {
          "internalType": "address",
          "name": "operator",
          "type": "address"
        },
        {
          "internalType": "bool",
          "name": "approved",
          "type": "bool"
        }
      ],
      "name": "setApprovalForAll",
      "outputs": [],
      "stateMutability": "nonpayable",
      "type": "function"
    },
    {
      "inputs": [
        {
          "internalType": "bytes4",
          "name": "interfaceId",
          "type": "bytes4"
        }
      ],
      "name": "supportsInterface",
      "outputs": [
        {
          "internalType": "bool",
          "name": "",
          "type": "bool"
        }
      ],
      "stateMutability": "view",
      "type": "function"
    },
    {
      "inputs": [],
      "name": "symbol",
      "outputs": [
        {
          "internalType": "string",
          "name": "",
          "type": "string"
        }
      ],
      "stateMutability": "view",
      "type": "function"
    },
    {
      "inputs": [
        {
          "internalType": "uint256",
          "name": "tokenId",
          "type": "uint256"
        }
      ],
      "name": "tokenURI",
      "outputs": [
        {
          "internalType": "string",
          "name": "",
          "type": "string"
        }
      ],
      "stateMutability": "view",
      "type": "function"
    },
    {
      "inputs": [
        {
          "internalType": "address",
          "name": "from",
          "type": "address"
        },
        {
          "internalType": "address",
          "name": "to",
          "type": "address"
        },
        {
          "internalType": "uint256",
          "name": "tokenId",
          "type": "uint256"
        }
      ],
      "name": "transferFrom",
      "outputs": [],
      "stateMutability": "nonpayable",
      "type": "function"
    },
    {
      "inputs": [
        {
          "internalType": "address",
          "name": "newOwner",
          "type": "address"
        }
      ],
      "name": "transferOwnership",
      "outputs": [],
      "stateMutability": "nonpayable",
      "type": "function"
    },
    {
      "inputs": [
        {
          "internalType": "uint256",
          "name": "_amount",
          "type": "uint256"
        }
      ],
      "name": "withdrawPearlTokens",
      "outputs": [],
      "stateMutability": "nonpayable",
      "type": "function"
    }
  ],
  "bytecode": "0x60806040523480156200001157600080fd5b50604051620027da380380620027da83398101604081905262000034916200015e565b336040518060400160405280601981526020017f5572617368696d61205461726f204d79737465727920426f7800000000000000815250604051806040016040528060048152602001632aaa26a160e11b815250816000908162000099919062000235565b506001620000a8828262000235565b5050506001600160a01b038116620000da57604051631e4fbdf760e01b81526000600482015260240160405180910390fd5b620000e5816200010c565b50600880546001600160a01b0319166001600160a01b039290921691909117905562000301565b600680546001600160a01b038381166001600160a01b0319831681179093556040519116919082907f8be0079c531659141344cd1fd0a4f28419497f9722a3daafe3b4186f6b6457e090600090a35050565b6000602082840312156200017157600080fd5b81516001600160a01b03811681146200018957600080fd5b9392505050565b634e487b7160e01b600052604160045260246000fd5b600181811c90821680620001bb57607f821691505b602082108103620001dc57634e487b7160e01b600052602260045260246000fd5b50919050565b601f8211156200023057600081815260208120601f850160051c810160208610156200020b5750805b601f850160051c820191505b818110156200022c5782815560010162000217565b5050505b505050565b81516001600160401b0381111562000251576200025162000190565b6200026981620002628454620001a6565b84620001e2565b602080601f831160018114620002a15760008415620002885750858301515b600019600386901b1c1916600185901b1785556200022c565b600085815260208120601f198616915b82811015620002d257888601518255948401946001909101908401620002b1565b5085821015620002f15787850151600019600388901b60f8161c191681555b5050505050600190811b01905550565b6124c980620003116000396000f3fe608060405234801561001057600080fd5b506004361061018e5760003560e01c80636352211e116100de578063a22cb46511610097578063b88d4fde11610071578063b88d4fde14610388578063c87b56dd1461039b578063e985e9c5146103ae578063f2fde38b146103c157600080fd5b8063a22cb4651461034f578063b114dcaf14610362578063b49df9311461037557600080fd5b80636352211e146102f557806370a0823114610308578063715018a61461031b5780637e5f0d0c146103235780638da5cb5b1461033657806395d89b411461034757600080fd5b806323b872dd1161014b5780632fb61311116101255780632fb613111461029f57806342842e0e146102bf5780634456ed33146102d257806349a2104d146102e557600080fd5b806323b872dd1461024b578063271427ce1461025e5780632de07c491461027f57600080fd5b806301ffc9a71461019357806306fdde03146101bb578063081812fc146101d0578063095ea7b3146101fb57806315bfa19b146102105780631c6a7ac314610223575b600080fd5b6101a66101a1366004611ca8565b6103d4565b60405190151581526020015b60405180910390f35b6101c3610426565b6040516101b29190611d1c565b6101e36101de366004611d2f565b6104b8565b6040516001600160a01b0390911681526020016101b2565b61020e610209366004611d64565b6104e1565b005b61020e61021e366004611d2f565b6104f0565b610236610231366004611d2f565b61064d565b6040516101b299989796959493929190611d8e565b61020e610259366004611e0b565b610840565b61027161026c366004611d64565b6108cb565b6040519081526020016101b2565b61029261028d366004611e47565b6108fc565b6040516101b29190611e62565b6102b26102ad366004611d2f565b610968565b6040516101b29190611ea6565b61020e6102cd366004611e0b565b610c53565b61020e6102e0366004611d2f565b610c73565b61027168056bc75e2d6310000081565b6101e3610303366004611d2f565b610d31565b610271610316366004611e47565b610d3c565b61020e610d84565b610271610331366004612019565b610d98565b6006546001600160a01b03166101e3565b6101c3611097565b61020e61035d3660046120b7565b6110a6565b6008546101e3906001600160a01b031681565b61020e610383366004611d2f565b6110b1565b61020e6103963660046120ee565b6112bd565b6101c36103a9366004611d2f565b6112d5565b6101a66103bc36600461216a565b6115bc565b61020e6103cf366004611e47565b6115ea565b60006001600160e01b031982166380ac58cd60e01b148061040557506001600160e01b03198216635b5e139f60e01b145b8061042057506301ffc9a760e01b6001600160e01b03198316145b92915050565b6060600080546104359061219d565b80601f01602080910402602001604051908101604052809291908181526020018280546104619061219d565b80156104ae5780601f10610483576101008083540402835291602001916104ae565b820191906000526020600020905b81548152906001019060200180831161049157829003601f168201915b5050505050905090565b60006104c382611625565b506000828152600460205260409020546001600160a01b0316610420565b6104ec82823361165e565b5050565b336104fa82610d31565b6001600160a01b0316146105455760405162461bcd60e51b815260206004820152600d60248201526c2737ba103a34329037bbb732b960991b60448201526064015b60405180910390fd5b60008181526009602052604090206006810154610100900460ff166105ac5760405162461bcd60e51b815260206004820152601b60248201527f43616e6e6f7420626520636f6e76657274656420746f20636f696e0000000000604482015260640161053c565b6007810154156105fe5760405162461bcd60e51b815260206004820152601960248201527f416c726561647920636f6e76657274656420746f20636f696e00000000000000604482015260640161053c565b60068101805461ff001916905560016007820181905560405190815282907f77394795b5f8cdd77a2e4c3cb455760c2cc82c7d825970a42d1e9a02fda406e09060200160405180910390a25050565b60096020526000908152604090208054600182015460028301805492936001600160a01b039092169261067f9061219d565b80601f01602080910402602001604051908101604052809291908181526020018280546106ab9061219d565b80156106f85780601f106106cd576101008083540402835291602001916106f8565b820191906000526020600020905b8154815290600101906020018083116106db57829003601f168201915b50505050509080600301805461070d9061219d565b80601f01602080910402602001604051908101604052809291908181526020018280546107399061219d565b80156107865780601f1061075b57610100808354040283529160200191610786565b820191906000526020600020905b81548152906001019060200180831161076957829003601f168201915b50505050509080600401805461079b9061219d565b80601f01602080910402602001604051908101604052809291908181526020018280546107c79061219d565b80156108145780601f106107e957610100808354040283529160200191610814565b820191906000526020600020905b8154815290600101906020018083116107f757829003601f168201915b505050600584015460068501546007909501549394909360ff8083169450610100909204909116915089565b6001600160a01b03821661086a57604051633250574960e11b81526000600482015260240161053c565b600061087783833361166b565b9050836001600160a01b0316816001600160a01b0316146108c5576040516364283d7b60e01b81526001600160a01b038086166004830152602482018490528216604482015260640161053c565b50505050565b600a60205281600052604060002081815481106108e757600080fd5b90600052602060002001600091509150505481565b6001600160a01b0381166000908152600a602090815260409182902080548351818402810184019094528084526060939283018282801561095c57602002820191906000526020600020905b815481526020019060010190808311610948575b50505050509050919050565b6109c46040518061012001604052806000815260200160006001600160a01b0316815260200160608152602001606081526020016060815260200160008152602001600015158152602001600015158152602001600081525090565b6000828152600260205260409020546001600160a01b0316610a285760405162461bcd60e51b815260206004820152601a60248201527f4d79737465727920626f7820646f6573206e6f74206578697374000000000000604482015260640161053c565b6000828152600960209081526040918290208251610120810184528154815260018201546001600160a01b0316928101929092526002810180549293919291840191610a739061219d565b80601f0160208091040260200160405190810160405280929190818152602001828054610a9f9061219d565b8015610aec5780601f10610ac157610100808354040283529160200191610aec565b820191906000526020600020905b815481529060010190602001808311610acf57829003601f168201915b50505050508152602001600382018054610b059061219d565b80601f0160208091040260200160405190810160405280929190818152602001828054610b319061219d565b8015610b7e5780601f10610b5357610100808354040283529160200191610b7e565b820191906000526020600020905b815481529060010190602001808311610b6157829003601f168201915b50505050508152602001600482018054610b979061219d565b80601f0160208091040260200160405190810160405280929190818152602001828054610bc39061219d565b8015610c105780601f10610be557610100808354040283529160200191610c10565b820191906000526020600020905b815481529060010190602001808311610bf357829003601f168201915b505050918352505060058201546020820152600682015460ff80821615156040840152610100909104161515606082015260079091015460809091015292915050565b610c6e838383604051806020016040528060008152506112bd565b505050565b610c7b611764565b60085460405163a9059cbb60e01b8152336004820152602481018390526001600160a01b039091169063a9059cbb906044016020604051808303816000875af1158015610ccc573d6000803e3d6000fd5b505050506040513d601f19601f82011682018060405250810190610cf091906121d1565b610d2e5760405162461bcd60e51b815260206004820152600f60248201526e151c985b9cd9995c8819985a5b1959608a1b604482015260640161053c565b50565b600061042082611625565b60006001600160a01b038216610d68576040516322718ad960e21b81526000600482015260240161053c565b506001600160a01b031660009081526003602052604090205490565b610d8c611764565b610d966000611791565b565b6000808211610df35760405162461bcd60e51b815260206004820152602160248201527f4d696e74207072696365206d7573742062652067726561746572207468616e206044820152600360fc1b606482015260840161053c565b6000845111610e395760405162461bcd60e51b815260206004820152601260248201527112541194c81a185cda081c995c5d5a5c995960721b604482015260640161053c565b6008546040516323b872dd60e01b815233600482015230602482015268056bc75e2d6310000060448201526001600160a01b03909116906323b872dd906064016020604051808303816000875af1158015610e98573d6000803e3d6000fd5b505050506040513d601f19601f82011682018060405250810190610ebc91906121d1565b610f085760405162461bcd60e51b815260206004820152601a60248201527f4661696c656420746f20706179206372656174696f6e20666565000000000000604482015260640161053c565b600780549081906000610f1a836121ee565b909155505060408051610120810182528281523360208083019182528284018a8152606084018a90526080840189905260a08401889052600060c08501819052600160e08601819052610100860182905287825260099093529490942083518155915190820180546001600160a01b0319166001600160a01b0390921691909117905591519091906002820190610fb1908261225b565b5060608201516003820190610fc6908261225b565b5060808201516004820190610fdb908261225b565b5060a0820151600582015560c082015160068201805460e085015161ffff1990911692151561ff00191692909217610100921515830217905590910151600790910155336000818152600a602090815260408220805460018101825590835291200182905561104a90826117e3565b336001600160a01b0316817f46fa44f64d337df880e68ea355c00e0eadc889cb40eb61b9c5903f6fee2f2a56888660405161108692919061231b565b60405180910390a395945050505050565b6060600180546104359061219d565b6104ec338383611848565b6000818152600260205260409020546001600160a01b03166111155760405162461bcd60e51b815260206004820152601a60248201527f4d79737465727920626f7820646f6573206e6f74206578697374000000000000604482015260640161053c565b60008181526009602052604090206001810154336001600160a01b03909116036111815760405162461bcd60e51b815260206004820152601f60248201527f43616e6e6f74207075726368617365206f776e206d79737465727920626f7800604482015260640161053c565b600854600182015460058301546040516323b872dd60e01b81523360048201526001600160a01b03928316602482015260448101919091529116906323b872dd906064016020604051808303816000875af11580156111e4573d6000803e3d6000fd5b505050506040513d601f19601f8201168201806040525081019061120891906121d1565b6112545760405162461bcd60e51b815260206004820152601a60248201527f4661696c656420746f207472616e73666572207061796d656e74000000000000604482015260640161053c565b600061125f83610d31565b905061126c8133856118e7565b60068201805460ff1916600117905560405183907fb8843415b48f10f865567fafef190064f367a9f4e4d9d01c1ba0d90072c0d703906112b090600386019061233d565b60405180910390a2505050565b6112c8848484610840565b6108c53385858585611997565b6000818152600260205260409020546060906001600160a01b031661133c5760405162461bcd60e51b815260206004820152601f60248201527f55524920717565727920666f72206e6f6e6578697374656e7420746f6b656e00604482015260640161053c565b60008281526009602090815260408083208151610120810183528154815260018201546001600160a01b03169381019390935260028101805491928401916113839061219d565b80601f01602080910402602001604051908101604052809291908181526020018280546113af9061219d565b80156113fc5780601f106113d1576101008083540402835291602001916113fc565b820191906000526020600020905b8154815290600101906020018083116113df57829003601f168201915b505050505081526020016003820180546114159061219d565b80601f01602080910402602001604051908101604052809291908181526020018280546114419061219d565b801561148e5780601f106114635761010080835404028352916020019161148e565b820191906000526020600020905b81548152906001019060200180831161147157829003601f168201915b505050505081526020016004820180546114a79061219d565b80601f01602080910402602001604051908101604052809291908181526020018280546114d39061219d565b80156115205780601f106114f557610100808354040283529160200191611520565b820191906000526020600020905b81548152906001019060200180831161150357829003601f168201915b505050918352505060058201546020820152600682015460ff80821615156040840152610100909104161515606082015260079091015460809091015260c08101519091501561159657806060015160405160200161157f91906123c8565b604051602081830303815290604052915050919050565b604051806060016040528060348152602001612460603491399392505050565b50919050565b6001600160a01b03918216600090815260056020908152604080832093909416825291909152205460ff1690565b6115f2611764565b6001600160a01b03811661161c57604051631e4fbdf760e01b81526000600482015260240161053c565b610d2e81611791565b6000818152600260205260408120546001600160a01b03168061042057604051637e27328960e01b81526004810184905260240161053c565b610c6e8383836001611ac2565b6000828152600260205260408120546001600160a01b039081169083161561169857611698818486611bc8565b6001600160a01b038116156116d6576116b5600085600080611ac2565b6001600160a01b038116600090815260036020526040902080546000190190555b6001600160a01b03851615611705576001600160a01b0385166000908152600360205260409020805460010190555b60008481526002602052604080822080546001600160a01b0319166001600160a01b0389811691821790925591518793918516917fddf252ad1be2c89b69c2b068fc378daa952ba7f163c4a11628f55a4df523b3ef91a4949350505050565b6006546001600160a01b03163314610d965760405163118cdaa760e01b815233600482015260240161053c565b600680546001600160a01b038381166001600160a01b0319831681179093556040519116919082907f8be0079c531659141344cd1fd0a4f28419497f9722a3daafe3b4186f6b6457e090600090a35050565b6001600160a01b03821661180d57604051633250574960e11b81526000600482015260240161053c565b600061181b8383600061166b565b90506001600160a01b03811615610c6e576040516339e3563760e11b81526000600482015260240161053c565b6001600160a01b03821661187a57604051630b61174360e31b81526001600160a01b038316600482015260240161053c565b6001600160a01b03838116600081815260056020908152604080832094871680845294825291829020805460ff191686151590811790915591519182527f17307eab39ab6107e8899845ad3d59bd9653f200f220920489ca2b5937696c31910160405180910390a3505050565b6001600160a01b03821661191157604051633250574960e11b81526000600482015260240161053c565b600061191f8383600061166b565b90506001600160a01b03811661194b57604051637e27328960e01b81526004810183905260240161053c565b836001600160a01b0316816001600160a01b0316146108c5576040516364283d7b60e01b81526001600160a01b038086166004830152602482018490528216604482015260640161053c565b6001600160a01b0383163b15611abb57604051630a85bd0160e11b81526001600160a01b0384169063150b7a02906119d9908890889087908790600401612405565b6020604051808303816000875af1925050508015611a14575060408051601f3d908101601f19168201909252611a1191810190612442565b60015b611a7d573d808015611a42576040519150601f19603f3d011682016040523d82523d6000602084013e611a47565b606091505b508051600003611a7557604051633250574960e11b81526001600160a01b038516600482015260240161053c565b805181602001fd5b6001600160e01b03198116630a85bd0160e11b14611ab957604051633250574960e11b81526001600160a01b038516600482015260240161053c565b505b5050505050565b8080611ad657506001600160a01b03821615155b15611b98576000611ae684611625565b90506001600160a01b03831615801590611b125750826001600160a01b0316816001600160a01b031614155b8015611b255750611b2381846115bc565b155b15611b4e5760405163a9fbf51f60e01b81526001600160a01b038416600482015260240161053c565b8115611b965783856001600160a01b0316826001600160a01b03167f8c5be1e5ebec7d5bd14f71427d1e84f3dd0314c0f7b2291e5b200ac8c7c3b92560405160405180910390a45b505b5050600090815260046020526040902080546001600160a01b0319166001600160a01b0392909216919091179055565b611bd3838383611c2c565b610c6e576001600160a01b038316611c0157604051637e27328960e01b81526004810182905260240161053c565b60405163177e802f60e01b81526001600160a01b03831660048201526024810182905260440161053c565b60006001600160a01b03831615801590611c8a5750826001600160a01b0316846001600160a01b03161480611c665750611c6684846115bc565b80611c8a57506000828152600460205260409020546001600160a01b038481169116145b949350505050565b6001600160e01b031981168114610d2e57600080fd5b600060208284031215611cba57600080fd5b8135611cc581611c92565b9392505050565b60005b83811015611ce7578181015183820152602001611ccf565b50506000910152565b60008151808452611d08816020860160208601611ccc565b601f01601f19169290920160200192915050565b602081526000611cc56020830184611cf0565b600060208284031215611d4157600080fd5b5035919050565b80356001600160a01b0381168114611d5f57600080fd5b919050565b60008060408385031215611d7757600080fd5b611d8083611d48565b946020939093013593505050565b8981526001600160a01b038916602082015261012060408201819052600090611db98382018b611cf0565b90508281036060840152611dcd818a611cf0565b90508281036080840152611de18189611cf0565b60a0840197909752505092151560c084015290151560e08301526101009091015295945050505050565b600080600060608486031215611e2057600080fd5b611e2984611d48565b9250611e3760208501611d48565b9150604084013590509250925092565b600060208284031215611e5957600080fd5b611cc582611d48565b6020808252825182820181905260009190848201906040850190845b81811015611e9a57835183529284019291840191600101611e7e565b50909695505050505050565b602081528151602082015260006020830151611ecd60408401826001600160a01b03169052565b506040830151610120806060850152611eea610140850183611cf0565b91506060850151601f1980868503016080870152611f088483611cf0565b935060808701519150808685030160a087015250611f268382611cf0565b92505060a085015160c085015260c0850151611f4660e086018215159052565b5060e0850151610100611f5c8187018315159052565b959095015193019290925250919050565b634e487b7160e01b600052604160045260246000fd5b600067ffffffffffffffff80841115611f9e57611f9e611f6d565b604051601f8501601f19908116603f01168101908282118183101715611fc657611fc6611f6d565b81604052809350858152868686011115611fdf57600080fd5b858560208301376000602087830101525050509392505050565b600082601f83011261200a57600080fd5b611cc583833560208501611f83565b6000806000806080858703121561202f57600080fd5b843567ffffffffffffffff8082111561204757600080fd5b61205388838901611ff9565b9550602087013591508082111561206957600080fd5b61207588838901611ff9565b9450604087013591508082111561208b57600080fd5b5061209887828801611ff9565b949793965093946060013593505050565b8015158114610d2e57600080fd5b600080604083850312156120ca57600080fd5b6120d383611d48565b915060208301356120e3816120a9565b809150509250929050565b6000806000806080858703121561210457600080fd5b61210d85611d48565b935061211b60208601611d48565b925060408501359150606085013567ffffffffffffffff81111561213e57600080fd5b8501601f8101871361214f57600080fd5b61215e87823560208401611f83565b91505092959194509250565b6000806040838503121561217d57600080fd5b61218683611d48565b915061219460208401611d48565b90509250929050565b600181811c908216806121b157607f821691505b6020821081036115b657634e487b7160e01b600052602260045260246000fd5b6000602082840312156121e357600080fd5b8151611cc5816120a9565b60006001820161220e57634e487b7160e01b600052601160045260246000fd5b5060010190565b601f821115610c6e57600081815260208120601f850160051c8101602086101561223c5750805b601f850160051c820191505b81811015611ab957828155600101612248565b815167ffffffffffffffff81111561227557612275611f6d565b61228981612283845461219d565b84612215565b602080601f8311600181146122be57600084156122a65750858301515b600019600386901b1c1916600185901b178555611ab9565b600085815260208120601f198616915b828110156122ed578886015182559484019460019091019084016122ce565b508582101561230b5787850151600019600388901b60f8161c191681555b5050505050600190811b01905550565b60408152600061232e6040830185611cf0565b90508260208301529392505050565b60006020808352600084546123518161219d565b80848701526040600180841660008114612372576001811461238c576123ba565b60ff1985168984015283151560051b8901830195506123ba565b896000528660002060005b858110156123b25781548b8201860152908301908801612397565b8a0184019650505b509398975050505050505050565b7468747470733a2f2f697066732e696f2f697066732f60581b8152600082516123f8816015850160208701611ccc565b9190910160150192915050565b6001600160a01b038581168252841660208201526040810183905260806060820181905260009061243890830184611cf0565b9695505050505050565b60006020828403121561245457600080fd5b8151611cc581611c9256fe68747470733a2f2f697066732e696f2f697066732f516d596f75724d797374657279426f78506c616365686f6c64657248617368a264697066735822122099d692a9d11e0f5defc7d1d1b1f4e14dcb5492a1e05b204e769873956d2f6c5664736f6c63430008140033",
  "linkReferences": {},
  "deployedLinkReferences": {}
}